:100000000C9434000C9451000C9451000C94510049
:100010000C9451000C9451000C9451000C9451001C
:100020000C9451000C9451000C9451000C9451000C
:100030000C9451000C9451000C9451000C945100FC
:100040000C9451000C9451000C9451000C945100EC
:100050000C9451000C9451000C9451000C945100DC
:100060000C9451000C94510011241FBECFEFD8E026
:10007000DEBFCDBF11E0A0E0B1E0ECE3F1E002C0F3
:1000800005900D92AC30B107D9F721E0ACE0B1E0BA
:1000900001C01D92AE30B207E1F70E9495000C94AA
:1000A0009C000C9400001092C50087E68093C40069
:1000B000E0ECF0E080818D7F808386E08093C20059
:1000C00088E18093C1000895E0ECF0E0908195FF15
:1000D000FDCF8093C6000895CF93DF93EC01888114
:1000E000882331F021960E94640089918111FBCF11
:1000F000DF91CF9108950E946C0082E091E00E9410
:100100006C00089589B182FB882780F980930C01E7
:1001100010920D0184E091E00E946C0080910C012E
:1001200090910D010E947B00089552985A9A0E9466
:0C01300053000E948200FDCFF894FFCF26
:0C013C0030000A005357313A200900003F
:00000001FF
