S01100005A61646174616B20362E73726563FD
S11300000C9434000C9451000C9451000C94510045
S11300100C9451000C9451000C9451000C94510018
S11300200C9451000C9451000C9451000C94510008
S11300300C9451000C9451000C9451000C945100F8
S11300400C9451000C9451000C9451000C945100E8
S11300500C9451000C9451000C9451000C945100D8
S11300600C9451000C94510011241FBECFEFD8E022
S1130070DEBFCDBF11E0A0E0B1E0EEEBF4E002C0E2
S113008005900D92A030B107D9F721E0A0E0B1E0CE
S113009001C01D92A230B207E1F70E94A4000C94A3
S11300A05D020C9400001092C50087E68093C400A2
S11300B0E0ECF0E080818D7F808386E08093C20055
S11300C088E18093C1000895CF93609100017091FD
S11300D00101072E000C880B990B0E945C0120E0A3
S11300E030E048E453E40E94B2000E94E8012BB1DE
S11300F023782BB9CBB10E942401CB0165E070E0D9
S11301000E94350226E030E0281B390B81E090E0A4
S113011002C0880F991F2A95E2F78C2B8BB9809126
S113012000019091010188539F4F909301018093A6
S113013000012FEF83EC99E0215080409040E1F7DB
S113014000C00000CF91089584B18C7384B985B147
S1130150836085B98AB18C678AB90E9453000E9472
S11301606400FDCF0E94C6000C94AE010E94A7015A
S113017058F00E94A00140F029F45F3F29F00C944C
S1130180970151110C94E2010C949D010E94BF014E
S113019068F39923B1F3552391F3951B550BBB27B2
S11301A0AA2762177307840738F09F5F5F4F220FF7
S11301B0331F441FAA1FA9F335D00E2E3AF0E0E8EE
S11301C032D091505040E695001CCAF72BD0FE2F38
S11301D029D0660F771F881FBB1F261737074807CC
S11301E0AB07B0E809F0BB0B802DBF01FF27935884
S11301F05F4F3AF09E3F510578F00C9497010C94B0
S1130200E2015F3FE4F3983ED4F3869577956795D2
S1130210B795F7959F5FC9F7880F911D96958795B8
S113022097F90895E1E0660F771F881FBB1F6217D7
S113023073078407BA0720F0621B730B840BBA0B95
S1130240EE1F88F7E09508950E942B016894B11180
S11302500C94E20108950E94C70188F09F5798F01A
S1130260B92F9927B751B0F0E1F0660F771F881FB7
S1130270991F1AF0BA95C9F714C0B13091F00E94D1
S1130280E101B1E008950C94E101672F782F8827EC
S1130290B85F39F0B93FCCF3869577956795B395F8
S11302A0D9F73EF490958095709561957F4F8F4F67
S11302B09F4F0895E89409C097FB3EF4909580956C
S11302C0709561957F4F8F4F9F4F9923A9F0F92F18
S11302D096E9BB279395F695879577956795B79596
S11302E0F111F8CFFAF4BB0F11F460FF1BC06F5F7C
S11302F07F4F8F4F9F4F16C0882311F096E911C08E
S1130300772321F09EE8872F762F05C0662371F0AE
S113031096E8862F70E060E02AF09A95660F771FC2
S1130320881FDAF7880F9695879597F9089597F9B6
S11303309F6780E870E060E008959FEF80EC089587
S113034000240A94161617061806090608950024B0
S11303500A9412161306140605060895092E03942A
S1130360000C11F4882352F0BB0F40F4BF2B11F49E
S113037060FF04C06F5F7F4F8F4F9F4F089557FDFD
S11303809058440F551F59F05F3F71F04795880FFF
S113039097FB991F61F09F3F79F087950895121696
S11303A013061406551FF2CF4695F1DF08C0161642
S11303B017061806991FF1CF8695710561050894F3
S11303C00895E894BB2766277727CB0197F908950A
S11303D00E94C701E8F09E37E8F09639B8F49E38D9
S11303E048F4672F782F8827985FF9CF86957795FB
S11303F0679593959539D0F3B62FB1706B0F711D36
S1130400811D20F487957795679593950C940C023C
S11304100C9427020C94E201882371F4772321F0D1
S11304209850872B762F07C0662311F499270DC0A7
S11304309051862B70E060E02AF09A95660F771F42
S1130440881FDAF7880F9695879597F908959F3F47
S113045031F0915020F4879577956795B795880F7B
S1130460911D9695879597F9089597FB072E16F495
S1130470009407D077FD09D00E94490207FC05D0FB
S11304803EF4909581959F4F0895709561957F4FA7
S11304900895AA1BBB1B51E107C0AA1FBB1FA617C7
S11304A0B70710F0A61BB70B881F991F5A95A9F719
S11104B080959095BC01CD010895F894FFCF7E
S9030000FC
