S01100005A61646174616B20332E7372656300
S11300000C9434000C9451000C9451000C94510045
S11300100C9451000C9451000C9451000C94510018
S11300200C9451000C9451000C9451000C94510008
S11300300C9451000C9451000C9451000C945100F8
S11300400C9451000C9451000C9451000C945100E8
S11300500C9451000C9451000C9451000C945100D8
S11300600C9451000C94510011241FBECFEFD8E022
S1130070DEBFCDBF11E0A0E0B1E0E0E7F1E002C0F7
S113008005900D92AC33B107D9F721E0ACE3B1E0B0
S113009001C01D92AC33B207E1F70E94AA000C9490
S11300A0B6000C9400001092C50087E68093C4004B
S11300B0E0ECF0E080818D7F808386E08093C20055
S11300C088E18093C1000895E0ECF0E0908195FF11
S11300D0FDCF8093C6000895CF93DF93EC01888110
S11300E0882331F021960E94640089918111FBCF0D
S11300F0DF91CF9108950E946C0082E091E00E940C
S11301006C00089584E091E00E946C0089B1881F1E
S11301108827881F90E00E946C008AE091E00E948A
S11301206C0089B186FB882780F990E00E946C00FE
S113013089B1829586958695837031F45D9881E1C5
S113014091E00E947B0008955D9A84E291E00E9410
S11301507B0008958AB18F738AB98BB1806C8BB997
S1130160559A0E9453000E948200FDCFF894FFCF5D
S113017030000A005357313A0900095357323A09FB
S1130180000955766A6574205A61646F766F6C6AEB
S1130190656E21000955766A6574206E696A65206A
S10F01A07A61646F766F6C6A656E2100F2
S9030000FC
