S01100005A61646174616B20382E73726563FB
S11300000C9434000C9451000C9451000C94510045
S11300100C9451000C9451000C9451000C94510018
S11300200C9451000C9451000C9451000C94510008
S11300300C9451000C9451000C9451000C945100F8
S11300400C9451000C9451000C9451000C945100E8
S11300500C9451000C9451000C9451000C945100D8
S11300600C9451000C94510011241FBECFEFD8E022
S1130070DEBFCDBF11E0A0E0B1E0ECEAF1E002C0E8
S113008005900D92A231B107D9F721E0A2E1B1E0C8
S113009001C01D92A231B207E1F70E94C8000C947E
S11300A0D4000C9400001092C50087E68093C4002D
S11300B0E0ECF0E080818D7F808386E08093C20055
S11300C088E18093C1000895E0ECF0E0908195FF11
S11300D0FDCF8093C6000895CF93DF93EC01888110
S11300E0882331F021960E94640089918111FBCF0D
S11300F0DF91CF9108950E946C0084E091E00E940A
S11301006C00089583B1837090E08130910581F48F
S113011080910001909101010A972AF090930101C6
S1130120809300011BC0109201011092000116C0BF
S11301300297A1F480910001909101010A968F3FEA
S1130140910509F02CF4909301018093000106C0FD
S11301508FEF90E0909301018093000186E091E09D
S11301600E946C0080910001909101010E947B002B
S113017083EA8093B00084E08093B100E0E0F1E092
S1130180808180958093B30080818093B40008952A
S113019084B18C7384B985B1836085B9539A0E9404
S10F01A053000E948200FDCFF894FFCFB2
S11301AC800030000A0053766A65746C696E613A9B
S10501BC20001D
S9030000FC
