:100000000C9461000C947E000C947E000C947E0095
:100010000C947E000C947E000C947E000C947E0068
:100020000C947E000C947E000C947E000C941201C3
:100030000C947E000C947E000C947E000C947E0048
:100040000C947E000C947E000C947E000C947E0038
:100050000C947E000C947E000C947E000C947E0028
:100060000C947E000C947E0008000000BE9224498F
:10007000123EABAAAA2ABECDCCCC4C3E00000080DA
:10008000BEABAAAAAA3E00000000BF000000803F4D
:100090000000000000084178D3BB4387D1133D190D
:1000A0000E3CC3BD4282AD2B3E68EC8276BED98F3A
:1000B000E1A93E4C80EFFFBE01C4FF7F3F0000007E
:1000C000000011241FBECFEFD8E0DEBFCDBF11E08E
:1000D000A0E0B1E0EEE6FCE002C005900D92AA318E
:1000E000B107D9F721E0AAE1B1E001C01D92A03229
:1000F000B207E1F70E94E5010C9435060C9400006C
:10010000EF92FF920F931F93CF93DF93EC01009731
:10011000B1F1D4F5D195C195D109BE010D2E000CD8
:10012000880B990B0E94BA020E9446030E94820229
:100130007B01CB0102960E9414058C018DE2F8012F
:10014000808321E030E0FF20ECF0F701E20FF31FA5
:100150003196E00FF11F200F311F0F2EFAE0EF2E26
:10016000F12CF02DCE01B7010E94EC04805D82934A
:10017000C62FD72F2E173F07A9F7C80118C088E050
:1001800091E015C0C80113C0BC01990F880B990BF1
:100190000E94BA020E9446030E9482027B01CB01A8
:1001A00001960E9414058C0120E030E0CCCFDF9155
:1001B000CF911F910F91FF90EF9008951092C5007D
:1001C00087E68093C400E0ECF0E080818D7F80833F
:1001D00086E08093C20088E18093C1000895E0EC3E
:1001E000F0E0908195FFFDCF8093C6000895CF93F6
:1001F000DF93EC018881882331F021960E94EF0083
:1002000089918111FBCFDF91CF9108950E948000E9
:100210000E94F70008950E94F7008AE091E00E9492
:10022000F70008951F920F920FB60F9211248F932B
:1002300087B58F5F87BD8F910F900FBE0F901F9076
:10024000189560911A0170911B01072E000C880B04
:10025000990B0E94BA0220E030E048E453E40E9487
:1002600010020E940B040E948202CB0165E070E044
:100270000E94EC0482309105B1F02CF4009749F013
:10028000019761F008958330910591F00497A9F0EA
:1002900008958BB183788BB95A9A08958BB183787E
:1002A0008BB95B9A08958BB183788BB95C9A08956A
:1002B0008BB183788BB95D9A08958BB183788BB9B4
:1002C0005E9A089560911A0170911B01072E000C2F
:1002D000880B990B0E94BA0220E030E048E453E416
:1002E0000E9410020E940B040E948202CB0165E072
:1002F00070E00E94EC0482309105B1F02CF400977C
:1003000049F0019761F008958330910591F00497C9
:10031000A9F008958BB183788BB95E9A08958BB15B
:1003200083788BB95D9A08958BB183788BB95C9A89
:1003300008958BB183788BB95B9A08958BB18378DC
:100340008BB95A9A08950F931F93CF93C3B1C3707B
:100350000C2F10E08CE091E00E94F700C801817042
:1003600090780E94060182E191E00E94F700C801A6
:10037000959587950E940B01809106019091070148
:100380000817190759F010930701009306018BB164
:1003900083788BB910921B0110921A01C13031F091
:1003A00058F0C23031F0C33059F00BC00E946201E6
:1003B00008C00E94210105C08BB18C678BB901C0B8
:1003C0005C9ACF911F910F91089584B18C7384B979
:1003D00085B1836085B98AB18C678AB90E94DE00D5
:1003E00083ED90E39093870080938600E1E8F0E04E
:1003F000808188608083AFE6B0E08C9182608C93CE
:1004000080818460808378940E94A3012FE38DE033
:1004100093E0215080409040E1F700C00000F4CF0D
:100420000E9424020C940C030E94050358F00E94C1
:10043000FE0240F029F45F3F29F00C94F5025111BF
:100440000C9440030C94FB020E941D0368F3992353
:10045000B1F3552391F3951B550BBB27AA276217C0
:100460007307840738F09F5F5F4F220F331F441FCD
:10047000AA1FA9F335D00E2E3AF0E0E832D0915001
:100480005040E695001CCAF72BD0FE2F29D0660FEE
:10049000771F881FBB1F261737074807AB07B0E831
:1004A00009F0BB0B802DBF01FF2793585F4F3AF037
:1004B0009E3F510578F00C94F5020C9440035F3F89
:1004C000E4F3983ED4F3869577956795B795F795BD
:1004D0009F5FC9F7880F911D9695879597F90895A5
:1004E000E1E0660F771F881FBB1F62177307840741
:1004F000BA0720F0621B730B840BBA0BEE1F88F750
:10050000E09508950E9489026894B1110C9440030B
:1005100008950E94250388F09F5798F0B92F9927D6
:10052000B751B0F0E1F0660F771F881F991F1AF0DE
:10053000BA95C9F714C0B13091F00E943F03B1E001
:1005400008950C943F03672F782F8827B85F39F000
:10055000B93FCCF3869577956795B395D9F73EF477
:1005600090958095709561957F4F8F4F9F4F08951F
:10057000E89409C097FB3EF490958095709561953D
:100580007F4F8F4F9F4F9923A9F0F92F96E9BB27F3
:100590009395F695879577956795B795F111F8CF6F
:1005A000FAF4BB0F11F460FF1BC06F5F7F4F8F4FDA
:1005B0009F4F16C0882311F096E911C0772321F0D0
:1005C0009EE8872F762F05C0662371F096E8862F68
:1005D00070E060E02AF09A95660F771F881FDAF7BF
:1005E000880F9695879597F9089597F99F6780E802
:1005F00070E060E008959FEF80EC089500240A9475
:100600001616170618060906089500240A941216ED
:100610001306140605060895092E0394000C11F420
:10062000882352F0BB0F40F4BF2B11F460FF04C0CD
:100630006F5F7F4F8F4F9F4F089557FD9058440F26
:10064000551F59F05F3F71F04795880F97FB991F31
:1006500061F09F3F79F087950895121613061406EE
:10066000551FF2CF4695F1DF08C01616170618067B
:10067000991FF1CF86957105610508940895E89456
:10068000BB2766277727CB0197F908950E94560369
:1006900029ED3BE54EED5EE30C949E0316F00C94C1
:1006A000B7040C94FB0268940C94F5020E94250395
:1006B000A8F39923C1F3AEF3DF93CF931F930F9366
:1006C000FF92C92FDD2788232AF02197660F771F15
:1006D000881FDAF720E030E040E85FEB9FE38839DD
:1006E00020F0803E38F021968F770E943004E8E6B3
:1006F000F0E004C00E943004E5E9F0E00E94C50487
:100700008B01BE01EC01FB2E6F5771097595771FA8
:10071000880B990B0E94BA0228E132E741E35FE3BC
:100720000E94B103AF2D9801AE01FF900F911F9170
:10073000CF91DF910E9447040C940C030E94B103F7
:100740000C940C030E94FE0238F00E94050320F076
:10075000952311F00C94F5020C94FB0211240C94D7
:1007600040030E941D0370F3959FC1F3950F50E065
:10077000551F629FF001729FBB27F00DB11D639F53
:10078000AA27F00DB11DAA1F649F6627B00DA11DF9
:10079000661F829F2227B00DA11D621F739FB00D9F
:1007A000A11D621F839FA00D611D221F749F33270F
:1007B000A00D611D231F849F600D211D822F762FA8
:1007C0006A2F11249F5750409AF0F1F088234AF085
:1007D000EE0FFF1FBB1F661F771F881F91505040F1
:1007E000A9F79E3F510580F00C94F5020C9440034C
:1007F0005F3FE4F3983ED4F3869577956795B79578
:10080000F795E7959F5FC1F7FE2B880F911D969591
:10081000879597F908950E942503E8F09E37E8F040
:100820009639B8F49E3848F4672F782F8827985F58
:10083000F9CF86957795679593959539D0F3B62F2F
:10084000B1706B0F711D811D20F4879577956795A9
:1008500093950C949C040C94B7040C94400350584A
:10086000BB27AA270E9447040C940C030E94FE0297
:1008700038F00E94050320F039F49F3F19F426F464
:100880000C94FB020EF4E095E7FB0C94F502E92FC3
:100890000E941D0358F3BA17620773078407950770
:1008A00020F079F4A6F50C943F030EF4E0950B2E9E
:1008B000BA2FA02D0B01B90190010C01CA01A001B2
:1008C0001124FF27591B99F0593F50F4503E68F10D
:1008D0001A16F040A22F232F342F4427585FF3CF4E
:1008E000469537952795A795F0405395C9F77EF41F
:1008F0001F16BA0B620B730B840BBAF09150A1F068
:10090000FF0FBB1F661F771F881FC2F70EC0BA0FED
:10091000621F731F841F48F4879577956795B79575
:10092000F7959E3F08F0B0CF9395880F08F0992770
:10093000EE0F979587950895882371F4772321F01A
:100940009850872B762F07C0662311F499270DC086
:100950009051862B70E060E02AF09A95660F771F21
:10096000881FDAF7880F9695879597F908959F3F26
:1009700031F0915020F4879577956795B795880F5A
:10098000911D9695879597F90895DF93CF931F93BF
:100990000F93FF92EF92DF927B018C01689406C067
:1009A000DA2EEF010E94B103FE01E894A591259192
:1009B000359145915591A6F3EF010E944704FE0140
:1009C0009701A801DA9469F7DF90EF90FF900F91FB
:1009D0001F91CF91DF91089597FB072E16F4009495
:1009E00007D077FD09D00E94000507FC05D03EF432
:1009F000909581959F4F0895709561957F4F0895CB
:100A0000AA1BBB1B51E107C0AA1FBB1FA617B70734
:100A100010F0A61BB70B881F991F5A95A9F7809550
:100A20009095BC01CD0108950F931F93CF93DF9351
:100A30008230910510F482E090E0E0911E01F09187
:100A40001F0120E030E0A0E0B0E0309719F14081D4
:100A500051810281138148175907C8F084179507FF
:100A600069F4109731F012960C93129713961C9319
:100A700027C000931E0110931F0122C021153105CC
:100A800019F04217530718F49A01BD01EF01DF0175
:100A9000F801DBCF21153105F9F0281B390B243083
:100AA000310580F48A819B816115710521F0FB017C
:100AB0009383828304C090931F0180931E01FE01E3
:100AC000329644C0FE01E20FF31F819391932250AE
:100AD0003109398328833AC020911C0130911D01CE
:100AE000232B41F4209102013091030130931D0129
:100AF00020931C0120910001309101012115310545
:100B000041F42DB73EB74091040150910501241BDB
:100B1000350BE0911C01F0911D01E217F307A0F4E1
:100B20002E1B3F0B2817390778F0AC014E5F5F4F43
:100B30002417350748F04E0F5F1F50931D01409357
:100B40001C018193919302C0E0E0F0E0CF01DF91BE
:100B5000CF911F910F910895CF93DF93009709F4E0
:100B600081C0FC01329713821282A0911E01B091C4
:100B70001F01109781F420813181820F931F2091F2
:100B80001C0130911D012817390751F5F0931D0103
:100B9000E0931C0167C0ED0120E030E0CE17DF07D5
:100BA00040F44A815B819E0141155105F1F0EA0153
:100BB000F5CFD383C28340815181840F951FC8171D
:100BC000D90759F488819981840F951F02969183E2
:100BD00080838A819B81938382832115310529F447
:100BE000F0931F01E0931E013DC0E901FB83EA83FE
:100BF00049915991C40FD51FEC17FD0761F480810D
:100C00009181840F951F0296E901998388838281DF
:100C100093819B838A83E0E0F0E012968D919C9112
:100C20001397009719F0FD01DC01F7CF8D919C918E
:100C300011979D012E5F3F4F820F931F20911C0142
:100C400030911D012817390769F4309729F4109263
:100C50001F0110921E0102C013821282B0931D0167
:0E0C6000A0931C01DF91CF910895F894FFCF6F
:100C6E00000020012000FFFF30000A005357313AE8
:0A0C7E000900095357323A0900003B
:00000001FF
